{
  "contractName": "Escrow",
  "abi": [
    {
      "constant": false,
      "inputs": [],
      "name": "accept",
      "outputs": [],
      "payable": false,
      "stateMutability": "nonpayable",
      "type": "function"
    },
    {
      "constant": false,
      "inputs": [],
      "name": "reject",
      "outputs": [],
      "payable": false,
      "stateMutability": "nonpayable",
      "type": "function"
    },
    {
      "constant": true,
      "inputs": [],
      "name": "buyerOk",
      "outputs": [
        {
          "name": "",
          "type": "uint256"
        }
      ],
      "payable": false,
      "stateMutability": "view",
      "type": "function"
    },
    {
      "constant": true,
      "inputs": [],
      "name": "sellerOk",
      "outputs": [
        {
          "name": "",
          "type": "uint256"
        }
      ],
      "payable": false,
      "stateMutability": "view",
      "type": "function"
    },
    {
      "inputs": [
        {
          "name": "_buyer",
          "type": "address"
        },
        {
          "name": "_seller",
          "type": "address"
        },
        {
          "name": "_productId",
          "type": "bytes32"
        }
      ],
      "payable": true,
      "stateMutability": "payable",
      "type": "constructor"
    }
  ],
  "bytecode": "0x60806040524260045560405160608061086683398101806040528101908080519060200190929190805190602001909291908051906020019092919050505060003411151561004d57600080fd5b336000806101000a81548173ffffffffffffffffffffffffffffffffffffffff021916908373ffffffffffffffffffffffffffffffffffffffff16021790555082600160006101000a81548173ffffffffffffffffffffffffffffffffffffffff021916908373ffffffffffffffffffffffffffffffffffffffff16021790555081600260006101000a81548173ffffffffffffffffffffffffffffffffffffffff021916908373ffffffffffffffffffffffffffffffffffffffff160217905550806003816000191690555050505061073a8061012c6000396000f300608060405260043610610062576000357c0100000000000000000000000000000000000000000000000000000000900463ffffffff1680632852b71c146100675780634dc415de1461007e57806353496a7514610095578063c5b0e6fb146100c0575b600080fd5b34801561007357600080fd5b5061007c6100eb565b005b34801561008a57600080fd5b506100936104d9565b005b3480156100a157600080fd5b506100aa610702565b6040518082815260200191505060405180910390f35b3480156100cc57600080fd5b506100d5610708565b6040518082815260200191505060405180910390f35b6000600160009054906101000a900473ffffffffffffffffffffffffffffffffffffffff1673ffffffffffffffffffffffffffffffffffffffff163373ffffffffffffffffffffffffffffffffffffffff1614806101965750600260009054906101000a900473ffffffffffffffffffffffffffffffffffffffff1673ffffffffffffffffffffffffffffffffffffffff163373ffffffffffffffffffffffffffffffffffffffff16145b15156101a157600080fd5b6000809054906101000a900473ffffffffffffffffffffffffffffffffffffffff169050600260009054906101000a900473ffffffffffffffffffffffffffffffffffffffff1673ffffffffffffffffffffffffffffffffffffffff163373ffffffffffffffffffffffffffffffffffffffff1614801561022457506000600654145b1561030157426006819055508073ffffffffffffffffffffffffffffffffffffffff16630ed7193260035460026040518363ffffffff167c010000000000000000000000000000000000000000000000000000000002815260040180836000191660001916815260200182600381111561029a57fe5b60ff16815260200192505050602060405180830381600087803b1580156102c057600080fd5b505af11580156102d4573d6000803e3d6000fd5b505050506040513d60208110156102ea57600080fd5b81019080805190602001909291905050505061043a565b600160009054906101000a900473ffffffffffffffffffffffffffffffffffffffff1673ffffffffffffffffffffffffffffffffffffffff163373ffffffffffffffffffffffffffffffffffffffff1614801561036057506000600554145b1561043957426005819055508073ffffffffffffffffffffffffffffffffffffffff16630ed7193260035460036040518363ffffffff167c01000000000000000000000000000000000000000000000000000000000281526004018083600019166000191681526020018260038111156103d657fe5b60ff16815260200192505050602060405180830381600087803b1580156103fc57600080fd5b505af1158015610410573d6000803e3d6000fd5b505050506040513d602081101561042657600080fd5b8101908080519060200190929190505050505b5b6000600554141580156104505750600060065414155b156104d657600260009054906101000a900473ffffffffffffffffffffffffffffffffffffffff1673ffffffffffffffffffffffffffffffffffffffff166108fc3073ffffffffffffffffffffffffffffffffffffffff16319081150290604051600060405180830381858888f193505050501580156104d4573d6000803e3d6000fd5b505b50565b6000600160009054906101000a900473ffffffffffffffffffffffffffffffffffffffff1673ffffffffffffffffffffffffffffffffffffffff163373ffffffffffffffffffffffffffffffffffffffff1614806105845750600260009054906101000a900473ffffffffffffffffffffffffffffffffffffffff1673ffffffffffffffffffffffffffffffffffffffff163373ffffffffffffffffffffffffffffffffffffffff16145b151561058f57600080fd5b6000809054906101000a900473ffffffffffffffffffffffffffffffffffffffff1690508073ffffffffffffffffffffffffffffffffffffffff16630ed7193260035460006040518363ffffffff167c010000000000000000000000000000000000000000000000000000000002815260040180836000191660001916815260200182600381111561061d57fe5b60ff16815260200192505050602060405180830381600087803b15801561064357600080fd5b505af1158015610657573d6000803e3d6000fd5b505050506040513d602081101561066d57600080fd5b810190808051906020019092919050505050600160009054906101000a900473ffffffffffffffffffffffffffffffffffffffff1673ffffffffffffffffffffffffffffffffffffffff166108fc3073ffffffffffffffffffffffffffffffffffffffff16319081150290604051600060405180830381858888f193505050501580156106fe573d6000803e3d6000fd5b5050565b60055481565b600654815600a165627a7a72305820fba8b6584fc239bbadf270712291af501d5a1637be0bbdf3b08bfdf06ce5e2690029",
  "source": "pragma solidity ^0.4.17;\r\n\r\nimport \"./Store.sol\";\r\n\r\ncontract Escrow {\r\n    address owner;\r\n    address buyer;\r\n    address seller;\r\n    bytes32 productId;\r\n    uint createdAt = now;\r\n    uint public buyerOk;\r\n    uint public sellerOk;\r\n\r\n    modifier onlyParticipant {\r\n        require(msg.sender == buyer || msg.sender == seller);\r\n        _;\r\n    }\r\n\r\n    function Escrow(address _buyer, address _seller, bytes32 _productId) public payable {\r\n        require(msg.value > 0);\r\n        owner = msg.sender;\r\n        buyer = _buyer;\r\n        seller = _seller;\r\n        productId = _productId;\r\n    }\r\n\r\n    function accept() public onlyParticipant {\r\n        Store store = Store(owner);\r\n\r\n        if (msg.sender == seller && sellerOk == 0) {\r\n            sellerOk = now;\r\n            store.updateProductStatus(productId, Store.ProductStatus.Shipping);\r\n        } else if (msg.sender == buyer && buyerOk == 0) {\r\n            buyerOk = now;\r\n            store.updateProductStatus(productId, Store.ProductStatus.Sold);\r\n        }\r\n\r\n        if (buyerOk != 0 && sellerOk != 0) {\r\n            seller.transfer(address(this).balance);\r\n        }\r\n    }\r\n\r\n    function reject() public onlyParticipant {\r\n        Store store = Store(owner);\r\n        store.updateProductStatus(productId, Store.ProductStatus.Available);\r\n        buyer.transfer(address(this).balance);\r\n    }\r\n}\r\n",
  "sourcePath": "C:/decentralized-ecommerce/contracts/Escrow.sol",
  "compiler": {
    "name": "solc",
    "version": "0.4.26+commit.4563c3fc.Emscripten.clang"
  },
  "schemaVersion": "3.4.1",
  "updatedAt": "2021-08-10T17:43:27.354Z",
  "devdoc": {
    "methods": {}
  },
  "userdoc": {
    "methods": {}
  }
}