{
  "contractName": "Store",
  "abi": [
    {
      "inputs": [],
      "payable": false,
      "stateMutability": "nonpayable",
      "type": "constructor"
    },
    {
      "anonymous": false,
      "inputs": [
        {
          "indexed": true,
          "name": "id",
          "type": "bytes32"
        },
        {
          "indexed": false,
          "name": "index",
          "type": "uint256"
        },
        {
          "indexed": false,
          "name": "name",
          "type": "string"
        },
        {
          "indexed": false,
          "name": "category",
          "type": "string"
        },
        {
          "indexed": false,
          "name": "imageLink",
          "type": "string"
        },
        {
          "indexed": false,
          "name": "descLink",
          "type": "string"
        },
        {
          "indexed": false,
          "name": "price",
          "type": "uint256"
        },
        {
          "indexed": false,
          "name": "status",
          "type": "uint8"
        }
      ],
      "name": "ProductCreated",
      "type": "event"
    },
    {
      "anonymous": false,
      "inputs": [
        {
          "indexed": true,
          "name": "id",
          "type": "bytes32"
        },
        {
          "indexed": false,
          "name": "index",
          "type": "uint256"
        },
        {
          "indexed": false,
          "name": "name",
          "type": "string"
        },
        {
          "indexed": false,
          "name": "category",
          "type": "string"
        },
        {
          "indexed": false,
          "name": "imageLink",
          "type": "string"
        },
        {
          "indexed": false,
          "name": "descLink",
          "type": "string"
        },
        {
          "indexed": false,
          "name": "price",
          "type": "uint256"
        },
        {
          "indexed": false,
          "name": "status",
          "type": "uint8"
        }
      ],
      "name": "ProductUpdated",
      "type": "event"
    },
    {
      "anonymous": false,
      "inputs": [
        {
          "indexed": true,
          "name": "productId",
          "type": "bytes32"
        },
        {
          "indexed": true,
          "name": "seller",
          "type": "address"
        },
        {
          "indexed": true,
          "name": "buyer",
          "type": "address"
        },
        {
          "indexed": false,
          "name": "escrow",
          "type": "address"
        }
      ],
      "name": "OrderCreated",
      "type": "event"
    },
    {
      "constant": false,
      "inputs": [
        {
          "name": "name",
          "type": "string"
        },
        {
          "name": "category",
          "type": "string"
        },
        {
          "name": "imageLink",
          "type": "string"
        },
        {
          "name": "descLink",
          "type": "string"
        },
        {
          "name": "price",
          "type": "uint256"
        }
      ],
      "name": "addProduct",
      "outputs": [
        {
          "name": "",
          "type": "uint256"
        }
      ],
      "payable": false,
      "stateMutability": "nonpayable",
      "type": "function"
    },
    {
      "constant": false,
      "inputs": [
        {
          "name": "id",
          "type": "bytes32"
        }
      ],
      "name": "placeOrder",
      "outputs": [],
      "payable": true,
      "stateMutability": "payable",
      "type": "function"
    },
    {
      "constant": true,
      "inputs": [
        {
          "name": "id",
          "type": "bytes32"
        }
      ],
      "name": "isProduct",
      "outputs": [
        {
          "name": "",
          "type": "bool"
        }
      ],
      "payable": false,
      "stateMutability": "view",
      "type": "function"
    },
    {
      "constant": true,
      "inputs": [
        {
          "name": "id",
          "type": "bytes32"
        }
      ],
      "name": "getProduct",
      "outputs": [
        {
          "name": "",
          "type": "string"
        },
        {
          "name": "",
          "type": "string"
        },
        {
          "name": "",
          "type": "string"
        },
        {
          "name": "",
          "type": "string"
        },
        {
          "name": "",
          "type": "uint256"
        },
        {
          "name": "",
          "type": "uint256"
        },
        {
          "name": "",
          "type": "uint8"
        }
      ],
      "payable": false,
      "stateMutability": "view",
      "type": "function"
    },
    {
      "constant": true,
      "inputs": [],
      "name": "getProductCount",
      "outputs": [
        {
          "name": "",
          "type": "uint256"
        }
      ],
      "payable": false,
      "stateMutability": "view",
      "type": "function"
    },
    {
      "constant": true,
      "inputs": [
        {
          "name": "index",
          "type": "uint256"
        }
      ],
      "name": "getProductIdAt",
      "outputs": [
        {
          "name": "",
          "type": "bytes32"
        }
      ],
      "payable": false,
      "stateMutability": "view",
      "type": "function"
    },
    {
      "constant": false,
      "inputs": [
        {
          "name": "id",
          "type": "bytes32"
        },
        {
          "name": "status",
          "type": "uint8"
        }
      ],
      "name": "updateProductStatus",
      "outputs": [
        {
          "name": "",
          "type": "bool"
        }
      ],
      "payable": false,
      "stateMutability": "nonpayable",
      "type": "function"
    }
  ],
  "bytecode": "0x608060405234801561001057600080fd5b50336000806101000a81548173ffffffffffffffffffffffffffffffffffffffff021916908373ffffffffffffffffffffffffffffffffffffffff160217905550611f20806100606000396000f300608060405260043610610083576000357c0100000000000000000000000000000000000000000000000000000000900463ffffffff1680630ed719321461008857806325dfbfba146100de5780633a20e9df146102375780634a348da9146104485780635f65faf11461047357806398a6dd50146104bc578063d1241e67146104e0575b600080fd5b34801561009457600080fd5b506100c46004803603810190808035600019169060200190929190803560ff169060200190929190505050610529565b604051808215151515815260200191505060405180910390f35b3480156100ea57600080fd5b50610221600480360381019080803590602001908201803590602001908080601f0160208091040260200160405190810160405280939291908181526020018383808284378201915050505050509192919290803590602001908201803590602001908080601f0160208091040260200160405190810160405280939291908181526020018383808284378201915050505050509192919290803590602001908201803590602001908080601f0160208091040260200160405190810160405280939291908181526020018383808284378201915050505050509192919290803590602001908201803590602001908080601f0160208091040260200160405190810160405280939291908181526020018383808284378201915050505050509192919290803590602001909291905050506108ba565b6040518082815260200191505060405180910390f35b34801561024357600080fd5b506102666004803603810190808035600019169060200190929190505050610e76565b604051808060200180602001806020018060200188815260200187815260200186600381111561029257fe5b60ff16815260200185810385528c818151815260200191508051906020019080838360005b838110156102d25780820151818401526020810190506102b7565b50505050905090810190601f1680156102ff5780820380516001836020036101000a031916815260200191505b5085810384528b818151815260200191508051906020019080838360005b8381101561033857808201518184015260208101905061031d565b50505050905090810190601f1680156103655780820380516001836020036101000a031916815260200191505b5085810383528a818151815260200191508051906020019080838360005b8381101561039e578082015181840152602081019050610383565b50505050905090810190601f1680156103cb5780820380516001836020036101000a031916815260200191505b50858103825289818151815260200191508051906020019080838360005b838110156104045780820151818401526020810190506103e9565b50505050905090810190601f1680156104315780820380516001836020036101000a031916815260200191505b509b50505050505050505050505060405180910390f35b34801561045457600080fd5b5061045d611200565b6040518082815260200191505060405180910390f35b34801561047f57600080fd5b506104a2600480360381019080803560001916906020019092919050505061120d565b604051808215151515815260200191505060405180910390f35b6104de600480360381019080803560001916906020019092919050505061126f565b005b3480156104ec57600080fd5b5061050b600480360381019080803590602001909291905050506115b6565b60405180826000191660001916815260200191505060405180910390f35b60006105348361120d565b151561053f57600080fd5b8160016000856000191660001916815260200190815260200160002060060160006101000a81548160ff0219169083600381111561057957fe5b021790555082600019167f17c18b5c0c3c0f1613b1b9b17e8ae203a66135d925c1d7fbaed0e5e02208fba960016000866000191660001916815260200190815260200160002060050154600160008760001916600019168152602001908152602001600020600001600160008860001916600019168152602001908152602001600020600101600160008960001916600019168152602001908152602001600020600201600160008a60001916600019168152602001908152602001600020600301600160008b600019166000191681526020019081526020016000206004015489604051808881526020018060200180602001806020018060200187815260200186600381111561068757fe5b60ff16815260200185810385528b8181546001816001161561010002031660029004815260200191508054600181600116156101000203166002900480156107105780601f106106e557610100808354040283529160200191610710565b820191906000526020600020905b8154815290600101906020018083116106f357829003601f168201915b505085810384528a8181546001816001161561010002031660029004815260200191508054600181600116156101000203166002900480156107935780601f1061076857610100808354040283529160200191610793565b820191906000526020600020905b81548152906001019060200180831161077657829003601f168201915b50508581038352898181546001816001161561010002031660029004815260200191508054600181600116156101000203166002900480156108165780601f106107eb57610100808354040283529160200191610816565b820191906000526020600020905b8154815290600101906020018083116107f957829003601f168201915b50508581038252888181546001816001161561010002031660029004815260200191508054600181600116156101000203166002900480156108995780601f1061086e57610100808354040283529160200191610899565b820191906000526020600020905b81548152906001019060200180831161087c57829003601f168201915b50509b50505050505050505050505060405180910390a26001905092915050565b6000806000809054906101000a900473ffffffffffffffffffffffffffffffffffffffff1673ffffffffffffffffffffffffffffffffffffffff163373ffffffffffffffffffffffffffffffffffffffff1614151561091857600080fd5b86868686866040518086805190602001908083835b602083101515610952578051825260208201915060208101905060208303925061092d565b6001836020036101000a03801982511681845116808217855250505050505090500185805190602001908083835b6020831015156109a55780518252602082019150602081019050602083039250610980565b6001836020036101000a03801982511681845116808217855250505050505090500184805190602001908083835b6020831015156109f857805182526020820191506020810190506020830392506109d3565b6001836020036101000a03801982511681845116808217855250505050505090500183805190602001908083835b602083101515610a4b5780518252602082019150602081019050602083039250610a26565b6001836020036101000a0380198251168184511680821785525050505050509050018281526020019550505050505060405180910390209050610a8d8161120d565b151515610a9957600080fd5b866001600083600019166000191681526020019081526020016000206000019080519060200190610acb9291906115d9565b50856001600083600019166000191681526020019081526020016000206001019080519060200190610afe9291906115d9565b50846001600083600019166000191681526020019081526020016000206002019080519060200190610b319291906115d9565b50836001600083600019166000191681526020019081526020016000206003019080519060200190610b649291906115d9565b5082600160008360001916600019168152602001908152602001600020600401819055506001600382908060018154018082558091505090600182039060005260206000200160009091929091909150906000191690550360016000836000191660001916815260200190815260200160002060050181905550600060016000836000191660001916815260200190815260200160002060060160006101000a81548160ff02191690836003811115610c1957fe5b021790555080600019167fb7b99263cf335df2fdf645c70004f0f70255bb54ba63c8b0afabdb695db55fbb60016000846000191660001916815260200190815260200160002060050154898989898960006040518088815260200180602001806020018060200180602001878152602001866003811115610c9657fe5b60ff16815260200185810385528b818151815260200191508051906020019080838360005b83811015610cd6578082015181840152602081019050610cbb565b50505050905090810190601f168015610d035780820380516001836020036101000a031916815260200191505b5085810384528a818151815260200191508051906020019080838360005b83811015610d3c578082015181840152602081019050610d21565b50505050905090810190601f168015610d695780820380516001836020036101000a031916815260200191505b50858103835289818151815260200191508051906020019080838360005b83811015610da2578082015181840152602081019050610d87565b50505050905090810190601f168015610dcf5780820380516001836020036101000a031916815260200191505b50858103825288818151815260200191508051906020019080838360005b83811015610e08578082015181840152602081019050610ded565b50505050905090810190601f168015610e355780820380516001836020036101000a031916815260200191505b509b50505050505050505050505060405180910390a26001600082600019166000191681526020019081526020016000206005015491505095945050505050565b6060806060806000806000610e8a8861120d565b1515610e9557600080fd5b600160008960001916600019168152602001908152602001600020600001600160008a60001916600019168152602001908152602001600020600101600160008b60001916600019168152602001908152602001600020600201600160008c60001916600019168152602001908152602001600020600301600160008d6000191660001916815260200190815260200160002060040154600160008e6000191660001916815260200190815260200160002060050154600160008f6000191660001916815260200190815260200160002060060160009054906101000a900460ff16868054600181600116156101000203166002900480601f01602080910402602001604051908101604052809291908181526020018280546001816001161561010002031660029004801561100c5780601f10610fe15761010080835404028352916020019161100c565b820191906000526020600020905b815481529060010190602001808311610fef57829003601f168201915b50505050509650858054600181600116156101000203166002900480601f0160208091040260200160405190810160405280929190818152602001828054600181600116156101000203166002900480156110a85780601f1061107d576101008083540402835291602001916110a8565b820191906000526020600020905b81548152906001019060200180831161108b57829003601f168201915b50505050509550848054600181600116156101000203166002900480601f0160208091040260200160405190810160405280929190818152602001828054600181600116156101000203166002900480156111445780601f1061111957610100808354040283529160200191611144565b820191906000526020600020905b81548152906001019060200180831161112757829003601f168201915b50505050509450838054600181600116156101000203166002900480601f0160208091040260200160405190810160405280929190818152602001828054600181600116156101000203166002900480156111e05780601f106111b5576101008083540402835291602001916111e0565b820191906000526020600020905b8154815290600101906020018083116111c357829003601f168201915b505050505093509650965096509650965096509650919395979092949650565b6000600380549050905090565b6000806003805490501415611225576000905061126a565b816000191660036001600085600019166000191681526020019081526020016000206005015481548110151561125757fe5b9060005260206000200154600019161490505b919050565b600080600061127d8461120d565b151561128857600080fd5b6001600085600019166000191681526020019081526020016000206004015434101515156112b557600080fd5b600060038111156112c257fe5b60016000866000191660001916815260200190815260200160002060060160009054906101000a900460ff1660038111156112f957fe5b14151561130557600080fd5b6000809054906101000a900473ffffffffffffffffffffffffffffffffffffffff16925033915034828486611338611659565b808473ffffffffffffffffffffffffffffffffffffffff1673ffffffffffffffffffffffffffffffffffffffff1681526020018373ffffffffffffffffffffffffffffffffffffffff1673ffffffffffffffffffffffffffffffffffffffff168152602001826000191660001916815260200193505050506040518091039082f0801580156113cb573d6000803e3d6000fd5b50905090508360026000866000191660001916815260200190815260200160002060000181600019169055508260026000866000191660001916815260200190815260200160002060010160006101000a81548173ffffffffffffffffffffffffffffffffffffffff021916908373ffffffffffffffffffffffffffffffffffffffff1602179055508160026000866000191660001916815260200190815260200160002060020160006101000a81548173ffffffffffffffffffffffffffffffffffffffff021916908373ffffffffffffffffffffffffffffffffffffffff1602179055508060026000866000191660001916815260200190815260200160002060030160006101000a81548173ffffffffffffffffffffffffffffffffffffffff021916908373ffffffffffffffffffffffffffffffffffffffff160217905550611519846001610529565b508173ffffffffffffffffffffffffffffffffffffffff168373ffffffffffffffffffffffffffffffffffffffff1685600019167f3a37abb73784c07cf521474fe4f006908d6ffb755290433efea1ba004fa29e5884604051808273ffffffffffffffffffffffffffffffffffffffff1673ffffffffffffffffffffffffffffffffffffffff16815260200191505060405180910390a450505050565b60006003828154811015156115c757fe5b90600052602060002001549050919050565b828054600181600116156101000203166002900490600052602060002090601f016020900481019282601f1061161a57805160ff1916838001178555611648565b82800160010185558215611648579182015b8281111561164757825182559160200191906001019061162c565b5b5090506116559190611669565b5090565b6040516108668061168f83390190565b61168b91905b8082111561168757600081600090555060010161166f565b5090565b90560060806040524260045560405160608061086683398101806040528101908080519060200190929190805190602001909291908051906020019092919050505060003411151561004d57600080fd5b336000806101000a81548173ffffffffffffffffffffffffffffffffffffffff021916908373ffffffffffffffffffffffffffffffffffffffff16021790555082600160006101000a81548173ffffffffffffffffffffffffffffffffffffffff021916908373ffffffffffffffffffffffffffffffffffffffff16021790555081600260006101000a81548173ffffffffffffffffffffffffffffffffffffffff021916908373ffffffffffffffffffffffffffffffffffffffff160217905550806003816000191690555050505061073a8061012c6000396000f300608060405260043610610062576000357c0100000000000000000000000000000000000000000000000000000000900463ffffffff1680632852b71c146100675780634dc415de1461007e57806353496a7514610095578063c5b0e6fb146100c0575b600080fd5b34801561007357600080fd5b5061007c6100eb565b005b34801561008a57600080fd5b506100936104d9565b005b3480156100a157600080fd5b506100aa610702565b6040518082815260200191505060405180910390f35b3480156100cc57600080fd5b506100d5610708565b6040518082815260200191505060405180910390f35b6000600160009054906101000a900473ffffffffffffffffffffffffffffffffffffffff1673ffffffffffffffffffffffffffffffffffffffff163373ffffffffffffffffffffffffffffffffffffffff1614806101965750600260009054906101000a900473ffffffffffffffffffffffffffffffffffffffff1673ffffffffffffffffffffffffffffffffffffffff163373ffffffffffffffffffffffffffffffffffffffff16145b15156101a157600080fd5b6000809054906101000a900473ffffffffffffffffffffffffffffffffffffffff169050600260009054906101000a900473ffffffffffffffffffffffffffffffffffffffff1673ffffffffffffffffffffffffffffffffffffffff163373ffffffffffffffffffffffffffffffffffffffff1614801561022457506000600654145b1561030157426006819055508073ffffffffffffffffffffffffffffffffffffffff16630ed7193260035460026040518363ffffffff167c010000000000000000000000000000000000000000000000000000000002815260040180836000191660001916815260200182600381111561029a57fe5b60ff16815260200192505050602060405180830381600087803b1580156102c057600080fd5b505af11580156102d4573d6000803e3d6000fd5b505050506040513d60208110156102ea57600080fd5b81019080805190602001909291905050505061043a565b600160009054906101000a900473ffffffffffffffffffffffffffffffffffffffff1673ffffffffffffffffffffffffffffffffffffffff163373ffffffffffffffffffffffffffffffffffffffff1614801561036057506000600554145b1561043957426005819055508073ffffffffffffffffffffffffffffffffffffffff16630ed7193260035460036040518363ffffffff167c01000000000000000000000000000000000000000000000000000000000281526004018083600019166000191681526020018260038111156103d657fe5b60ff16815260200192505050602060405180830381600087803b1580156103fc57600080fd5b505af1158015610410573d6000803e3d6000fd5b505050506040513d602081101561042657600080fd5b8101908080519060200190929190505050505b5b6000600554141580156104505750600060065414155b156104d657600260009054906101000a900473ffffffffffffffffffffffffffffffffffffffff1673ffffffffffffffffffffffffffffffffffffffff166108fc3073ffffffffffffffffffffffffffffffffffffffff16319081150290604051600060405180830381858888f193505050501580156104d4573d6000803e3d6000fd5b505b50565b6000600160009054906101000a900473ffffffffffffffffffffffffffffffffffffffff1673ffffffffffffffffffffffffffffffffffffffff163373ffffffffffffffffffffffffffffffffffffffff1614806105845750600260009054906101000a900473ffffffffffffffffffffffffffffffffffffffff1673ffffffffffffffffffffffffffffffffffffffff163373ffffffffffffffffffffffffffffffffffffffff16145b151561058f57600080fd5b6000809054906101000a900473ffffffffffffffffffffffffffffffffffffffff1690508073ffffffffffffffffffffffffffffffffffffffff16630ed7193260035460006040518363ffffffff167c010000000000000000000000000000000000000000000000000000000002815260040180836000191660001916815260200182600381111561061d57fe5b60ff16815260200192505050602060405180830381600087803b15801561064357600080fd5b505af1158015610657573d6000803e3d6000fd5b505050506040513d602081101561066d57600080fd5b810190808051906020019092919050505050600160009054906101000a900473ffffffffffffffffffffffffffffffffffffffff1673ffffffffffffffffffffffffffffffffffffffff166108fc3073ffffffffffffffffffffffffffffffffffffffff16319081150290604051600060405180830381858888f193505050501580156106fe573d6000803e3d6000fd5b5050565b60055481565b600654815600a165627a7a72305820583277fa07eacbb8e26d68ae412a512f2227158b7afbab02857bf2566106bdcb0029a165627a7a72305820f4ac3b3148c115b35576e9c907a19c535739a1d1138a7aee535e409e330206430029",
  "source": "pragma solidity ^0.4.17;\n\nimport \"./Escrow.sol\";\n\ncontract Store {\n    enum ProductStatus { Available, Processing, Shipping, Sold }\n\n    struct Product {\n        string name;\n        string category;\n        string imageLink;\n        string descLink;\n        uint price;\n        uint index;\n        ProductStatus status;\n    }\n\n    struct Order {\n        bytes32 productId;\n        address seller;\n        address buyer;\n        address escrow;\n    }\n\n    address owner;\n    mapping(bytes32 => Product) products;\n    mapping(bytes32 => Order) orders;\n    bytes32[] productIds;\n\n    event ProductCreated(\n        bytes32 indexed id,\n        uint index,\n        string name,\n        string category,\n        string imageLink,\n        string descLink,\n        uint price,\n        ProductStatus status\n    );\n\n    event ProductUpdated(\n        bytes32 indexed id,\n        uint index,\n        string name,\n        string category,\n        string imageLink,\n        string descLink,\n        uint price,\n        ProductStatus status\n    );\n\n    event OrderCreated(\n        bytes32 indexed productId,\n        address indexed seller,\n        address indexed buyer,\n        address escrow\n    );\n\n    modifier onlyOwner {\n        require(msg.sender == owner);\n        _;\n    }\n\n    function Store() public {\n        owner = msg.sender;\n    }\n\n    function addProduct(\n        string name,\n        string category,\n        string imageLink,\n        string descLink,\n        uint price\n    )\n        public onlyOwner returns (uint)\n    {\n        bytes32 id = keccak256(name, category, imageLink, descLink, price);\n        require(!isProduct(id));\n\n        products[id].name = name;\n        products[id].category = category;\n        products[id].imageLink = imageLink;\n        products[id].descLink = descLink;\n        products[id].price = price;\n        products[id].index = productIds.push(id) - 1;\n        products[id].status = ProductStatus.Available;\n\n        ProductCreated(\n            id,\n            products[id].index,\n            name,\n            category,\n            imageLink,\n            descLink,\n            price,\n            ProductStatus.Available\n        );\n\n        return products[id].index;\n    }\n\n    function placeOrder(bytes32 id) public payable {\n        require(isProduct(id));\n        require(msg.value >= products[id].price);\n        require(products[id].status == ProductStatus.Available);\n        address seller = owner; // Only allow owner sell items for now\n        address buyer = msg.sender;\n        address escrow = address((new Escrow).value(msg.value)(buyer, seller, id));\n\n        orders[id].productId = id;\n        orders[id].seller = seller;\n        orders[id].buyer = buyer;\n        orders[id].escrow = escrow;\n\n        updateProductStatus(id, ProductStatus.Processing);\n\n        OrderCreated(id, seller, buyer, escrow);\n    }\n\n    function isProduct(bytes32 id) public view returns (bool) {\n        if (productIds.length == 0) {\n            return false;\n        }\n\n        return productIds[products[id].index] == id;\n    }\n\n    function getProduct(bytes32 id)\n        public\n        view\n        returns (\n            string,\n            string,\n            string,\n            string,\n            uint,\n            uint,\n            ProductStatus\n        )\n    {\n        require(isProduct(id));\n\n        return (\n            products[id].name,\n            products[id].category,\n            products[id].imageLink,\n            products[id].descLink,\n            products[id].price,\n            products[id].index,\n            products[id].status\n        );\n    }\n\n    function getProductCount() public view returns (uint) {\n        return productIds.length;\n    }\n\n    function getProductIdAt(uint index) public view returns (bytes32) {\n        return productIds[index];\n    }\n\n    function updateProductStatus(bytes32 id, ProductStatus status)\n        public returns (bool)\n    {\n        require(isProduct(id));\n\n        products[id].status = status;\n\n        ProductUpdated(\n            id,\n            products[id].index,\n            products[id].name,\n            products[id].category,\n            products[id].imageLink,\n            products[id].descLink,\n            products[id].price,\n            status\n        );\n\n        return true;\n    }\n}\n",
  "sourcePath": "/Users/mac/Documents/decentralized-ecommerce/contracts/Store.sol",
  "compiler": {
    "name": "solc",
    "version": "0.4.26+commit.4563c3fc.Emscripten.clang"
  },
  "schemaVersion": "3.4.4",
  "updatedAt": "2022-01-09T11:23:18.507Z",
  "networkType": "ethereum",
  "devdoc": {
    "methods": {}
  },
  "userdoc": {
    "methods": {}
  }
}